{"abi":[{"type":"constructor","inputs":[{"name":"initialOwner","type":"address","internalType":"address"}],"stateMutability":"nonpayable"},{"type":"function","name":"approve","inputs":[{"name":"to","type":"address","internalType":"address"},{"name":"tokenId","type":"uint256","internalType":"uint256"}],"outputs":[],"stateMutability":"nonpayable"},{"type":"function","name":"balanceOf","inputs":[{"name":"owner","type":"address","internalType":"address"}],"outputs":[{"name":"","type":"uint256","internalType":"uint256"}],"stateMutability":"view"},{"type":"function","name":"batchBuyTickets","inputs":[{"name":"eventIds","type":"uint256[]","internalType":"uint256[]"},{"name":"quantities","type":"uint256[]","internalType":"uint256[]"}],"outputs":[],"stateMutability":"payable"},{"type":"function","name":"batchCreateEvents","inputs":[{"name":"names","type":"string[]","internalType":"string[]"},{"name":"ticketPrices","type":"uint256[]","internalType":"uint256[]"},{"name":"maxTicketsArray","type":"uint256[]","internalType":"uint256[]"}],"outputs":[],"stateMutability":"nonpayable"},{"type":"function","name":"buyTicket","inputs":[{"name":"eventId","type":"uint256","internalType":"uint256"}],"outputs":[],"stateMutability":"payable"},{"type":"function","name":"cancelEvent","inputs":[{"name":"eventId","type":"uint256","internalType":"uint256"},{"name":"reason","type":"string","internalType":"string"}],"outputs":[],"stateMutability":"nonpayable"},{"type":"function","name":"createEnhancedEvent","inputs":[{"name":"name","type":"string","internalType":"string"},{"name":"description","type":"string","internalType":"string"},{"name":"venue","type":"string","internalType":"string"},{"name":"date","type":"uint256","internalType":"uint256"},{"name":"ticketPrice","type":"uint256","internalType":"uint256"},{"name":"maxTickets","type":"uint256","internalType":"uint256"},{"name":"maxTicketsPerBuyer","type":"uint256","internalType":"uint256"},{"name":"transfersAllowed","type":"bool","internalType":"bool"},{"name":"transferFeePercent","type":"uint256","internalType":"uint256"}],"outputs":[],"stateMutability":"nonpayable"},{"type":"function","name":"createEvent","inputs":[{"name":"name","type":"string","internalType":"string"},{"name":"ticketPrice","type":"uint256","internalType":"uint256"},{"name":"maxTickets","type":"uint256","internalType":"uint256"}],"outputs":[],"stateMutability":"nonpayable"},{"type":"function","name":"eventExists","inputs":[{"name":"eventId","type":"uint256","internalType":"uint256"}],"outputs":[{"name":"","type":"bool","internalType":"bool"}],"stateMutability":"view"},{"type":"function","name":"events","inputs":[{"name":"","type":"uint256","internalType":"uint256"}],"outputs":[{"name":"name","type":"string","internalType":"string"},{"name":"description","type":"string","internalType":"string"},{"name":"venue","type":"string","internalType":"string"},{"name":"date","type":"uint256","internalType":"uint256"},{"name":"ticketPrice","type":"uint256","internalType":"uint256"},{"name":"maxTickets","type":"uint256","internalType":"uint256"},{"name":"maxTicketsPerBuyer","type":"uint256","internalType":"uint256"},{"name":"ticketsSold","type":"uint256","internalType":"uint256"},{"name":"organizer","type":"address","internalType":"address"},{"name":"isActive","type":"bool","internalType":"bool"},{"name":"totalCollected","type":"uint256","internalType":"uint256"},{"name":"transfersAllowed","type":"bool","internalType":"bool"},{"name":"transferFeePercent","type":"uint256","internalType":"uint256"}],"stateMutability":"view"},{"type":"function","name":"getApproved","inputs":[{"name":"tokenId","type":"uint256","internalType":"uint256"}],"outputs":[{"name":"","type":"address","internalType":"address"}],"stateMutability":"view"},{"type":"function","name":"getEventDetails","inputs":[{"name":"eventId","type":"uint256","internalType":"uint256"}],"outputs":[{"name":"name","type":"string","internalType":"string"},{"name":"ticketPrice","type":"uint256","internalType":"uint256"},{"name":"maxTickets","type":"uint256","internalType":"uint256"},{"name":"ticketsSold","type":"uint256","internalType":"uint256"},{"name":"organizer","type":"address","internalType":"address"}],"stateMutability":"view"},{"type":"function","name":"getFullEventDetails","inputs":[{"name":"eventId","type":"uint256","internalType":"uint256"}],"outputs":[{"name":"name","type":"string","internalType":"string"},{"name":"description","type":"string","internalType":"string"},{"name":"venue","type":"string","internalType":"string"},{"name":"date","type":"uint256","internalType":"uint256"},{"name":"ticketPrice","type":"uint256","internalType":"uint256"},{"name":"maxTickets","type":"uint256","internalType":"uint256"},{"name":"maxTicketsPerBuyer","type":"uint256","internalType":"uint256"},{"name":"ticketsSold","type":"uint256","internalType":"uint256"},{"name":"organizer","type":"address","internalType":"address"},{"name":"isActive","type":"bool","internalType":"bool"},{"name":"transfersAllowed","type":"bool","internalType":"bool"},{"name":"transferFeePercent","type":"uint256","internalType":"uint256"}],"stateMutability":"view"},{"type":"function","name":"getRefundAmount","inputs":[{"name":"tokenId","type":"uint256","internalType":"uint256"}],"outputs":[{"name":"","type":"uint256","internalType":"uint256"}],"stateMutability":"view"},{"type":"function","name":"getTicketDetails","inputs":[{"name":"tokenId","type":"uint256","internalType":"uint256"}],"outputs":[{"name":"eventId","type":"uint256","internalType":"uint256"},{"name":"eventName","type":"string","internalType":"string"},{"name":"ticketPrice","type":"uint256","internalType":"uint256"},{"name":"owner","type":"address","internalType":"address"}],"stateMutability":"view"},{"type":"function","name":"getTicketEventId","inputs":[{"name":"tokenId","type":"uint256","internalType":"uint256"}],"outputs":[{"name":"","type":"uint256","internalType":"uint256"}],"stateMutability":"pure"},{"type":"function","name":"getTicketsAvailable","inputs":[{"name":"eventId","type":"uint256","internalType":"uint256"}],"outputs":[{"name":"","type":"uint256","internalType":"uint256"}],"stateMutability":"view"},{"type":"function","name":"getTotalEvents","inputs":[],"outputs":[{"name":"","type":"uint256","internalType":"uint256"}],"stateMutability":"view"},{"type":"function","name":"isApprovedForAll","inputs":[{"name":"owner","type":"address","internalType":"address"},{"name":"operator","type":"address","internalType":"address"}],"outputs":[{"name":"","type":"bool","internalType":"bool"}],"stateMutability":"view"},{"type":"function","name":"isEventCancelled","inputs":[{"name":"eventId","type":"uint256","internalType":"uint256"}],"outputs":[{"name":"","type":"bool","internalType":"bool"}],"stateMutability":"view"},{"type":"function","name":"isValidForEntry","inputs":[{"name":"tokenId","type":"uint256","internalType":"uint256"}],"outputs":[{"name":"","type":"bool","internalType":"bool"}],"stateMutability":"view"},{"type":"function","name":"name","inputs":[],"outputs":[{"name":"","type":"string","internalType":"string"}],"stateMutability":"view"},{"type":"function","name":"owner","inputs":[],"outputs":[{"name":"","type":"address","internalType":"address"}],"stateMutability":"view"},{"type":"function","name":"ownerOf","inputs":[{"name":"tokenId","type":"uint256","internalType":"uint256"}],"outputs":[{"name":"","type":"address","internalType":"address"}],"stateMutability":"view"},{"type":"function","name":"refundTicket","inputs":[{"name":"tokenId","type":"uint256","internalType":"uint256"}],"outputs":[],"stateMutability":"nonpayable"},{"type":"function","name":"renounceOwnership","inputs":[],"outputs":[],"stateMutability":"nonpayable"},{"type":"function","name":"safeTransferFrom","inputs":[{"name":"from","type":"address","internalType":"address"},{"name":"to","type":"address","internalType":"address"},{"name":"tokenId","type":"uint256","internalType":"uint256"}],"outputs":[],"stateMutability":"nonpayable"},{"type":"function","name":"safeTransferFrom","inputs":[{"name":"from","type":"address","internalType":"address"},{"name":"to","type":"address","internalType":"address"},{"name":"tokenId","type":"uint256","internalType":"uint256"},{"name":"data","type":"bytes","internalType":"bytes"}],"outputs":[],"stateMutability":"nonpayable"},{"type":"function","name":"setApprovalForAll","inputs":[{"name":"operator","type":"address","internalType":"address"},{"name":"approved","type":"bool","internalType":"bool"}],"outputs":[],"stateMutability":"nonpayable"},{"type":"function","name":"supportsInterface","inputs":[{"name":"interfaceId","type":"bytes4","internalType":"bytes4"}],"outputs":[{"name":"","type":"bool","internalType":"bool"}],"stateMutability":"view"},{"type":"function","name":"symbol","inputs":[],"outputs":[{"name":"","type":"string","internalType":"string"}],"stateMutability":"view"},{"type":"function","name":"tokenByIndex","inputs":[{"name":"index","type":"uint256","internalType":"uint256"}],"outputs":[{"name":"","type":"uint256","internalType":"uint256"}],"stateMutability":"view"},{"type":"function","name":"tokenOfOwnerByIndex","inputs":[{"name":"owner","type":"address","internalType":"address"},{"name":"index","type":"uint256","internalType":"uint256"}],"outputs":[{"name":"","type":"uint256","internalType":"uint256"}],"stateMutability":"view"},{"type":"function","name":"tokenURI","inputs":[{"name":"tokenId","type":"uint256","internalType":"uint256"}],"outputs":[{"name":"","type":"string","internalType":"string"}],"stateMutability":"view"},{"type":"function","name":"totalSupply","inputs":[],"outputs":[{"name":"","type":"uint256","internalType":"uint256"}],"stateMutability":"view"},{"type":"function","name":"transferFrom","inputs":[{"name":"from","type":"address","internalType":"address"},{"name":"to","type":"address","internalType":"address"},{"name":"tokenId","type":"uint256","internalType":"uint256"}],"outputs":[],"stateMutability":"nonpayable"},{"type":"function","name":"transferOwnership","inputs":[{"name":"newOwner","type":"address","internalType":"address"}],"outputs":[],"stateMutability":"nonpayable"},{"type":"function","name":"updateEventSettings","inputs":[{"name":"eventId","type":"uint256","internalType":"uint256"},{"name":"transfersAllowed","type":"bool","internalType":"bool"},{"name":"transferFeePercent","type":"uint256","internalType":"uint256"}],"outputs":[],"stateMutability":"nonpayable"},{"type":"function","name":"verifyTicketOwnership","inputs":[{"name":"tokenId","type":"uint256","internalType":"uint256"},{"name":"owner","type":"address","internalType":"address"}],"outputs":[{"name":"","type":"bool","internalType":"bool"}],"stateMutability":"view"},{"type":"event","name":"Approval","inputs":[{"name":"owner","type":"address","indexed":true,"internalType":"address"},{"name":"approved","type":"address","indexed":true,"internalType":"address"},{"name":"tokenId","type":"uint256","indexed":true,"internalType":"uint256"}],"anonymous":false},{"type":"event","name":"ApprovalForAll","inputs":[{"name":"owner","type":"address","indexed":true,"internalType":"address"},{"name":"operator","type":"address","indexed":true,"internalType":"address"},{"name":"approved","type":"bool","indexed":false,"internalType":"bool"}],"anonymous":false},{"type":"event","name":"EventCancelled","inputs":[{"name":"eventId","type":"uint256","indexed":true,"internalType":"uint256"},{"name":"reason","type":"string","indexed":false,"internalType":"string"}],"anonymous":false},{"type":"event","name":"EventCreated","inputs":[{"name":"eventId","type":"uint256","indexed":true,"internalType":"uint256"},{"name":"name","type":"string","indexed":false,"internalType":"string"},{"name":"ticketPrice","type":"uint256","indexed":false,"internalType":"uint256"},{"name":"maxTickets","type":"uint256","indexed":false,"internalType":"uint256"},{"name":"organizer","type":"address","indexed":false,"internalType":"address"}],"anonymous":false},{"type":"event","name":"OwnershipTransferred","inputs":[{"name":"previousOwner","type":"address","indexed":true,"internalType":"address"},{"name":"newOwner","type":"address","indexed":true,"internalType":"address"}],"anonymous":false},{"type":"event","name":"RefundProcessed","inputs":[{"name":"eventId","type":"uint256","indexed":true,"internalType":"uint256"},{"name":"tokenId","type":"uint256","indexed":true,"internalType":"uint256"},{"name":"buyer","type":"address","indexed":true,"internalType":"address"},{"name":"amount","type":"uint256","indexed":false,"internalType":"uint256"}],"anonymous":false},{"type":"event","name":"TicketMinted","inputs":[{"name":"eventId","type":"uint256","indexed":true,"internalType":"uint256"},{"name":"tokenId","type":"uint256","indexed":true,"internalType":"uint256"},{"name":"buyer","type":"address","indexed":true,"internalType":"address"}],"anonymous":false},{"type":"event","name":"Transfer","inputs":[{"name":"from","type":"address","indexed":true,"internalType":"address"},{"name":"to","type":"address","indexed":true,"internalType":"address"},{"name":"tokenId","type":"uint256","indexed":true,"internalType":"uint256"}],"anonymous":false},{"type":"error","name":"ERC721EnumerableForbiddenBatchMint","inputs":[]},{"type":"error","name":"ERC721IncorrectOwner","inputs":[{"name":"sender","type":"address","internalType":"address"},{"name":"tokenId","type":"uint256","internalType":"uint256"},{"name":"owner","type":"address","internalType":"address"}]},{"type":"error","name":"ERC721InsufficientApproval","inputs":[{"name":"operator","type":"address","internalType":"address"},{"name":"tokenId","type":"uint256","internalType":"uint256"}]},{"type":"error","name":"ERC721InvalidApprover","inputs":[{"name":"approver","type":"address","internalType":"address"}]},{"type":"error","name":"ERC721InvalidOperator","inputs":[{"name":"operator","type":"address","internalType":"address"}]},{"type":"error","name":"ERC721InvalidOwner","inputs":[{"name":"owner","type":"address","internalType":"address"}]},{"type":"error","name":"ERC721InvalidReceiver","inputs":[{"name":"receiver","type":"address","internalType":"address"}]},{"type":"error","name":"ERC721InvalidSender","inputs":[{"name":"sender","type":"address","internalType":"address"}]},{"type":"error","name":"ERC721NonexistentToken","inputs":[{"name":"tokenId","type":"uint256","internalType":"uint256"}]},{"type":"error","name":"ERC721OutOfBoundsIndex","inputs":[{"name":"owner","type":"address","internalType":"address"},{"name":"index","type":"uint256","internalType":"uint256"}]},{"type":"error","name":"OwnableInvalidOwner","inputs":[{"name":"owner","type":"address","internalType":"address"}]},{"type":"error","name":"OwnableUnauthorizedAccount","inputs":[{"name":"account","type":"address","internalType":"address"}]}],"bytecode":{"object":"0x60803461038b576001600160401b0390601f90601f19613e513881900384810183168401868111858210176103905784928291604052833960209384918101031261038b57516001600160a01b0394858216939184900361038b576100626103a6565b9460078652660accae4d2a8d2f60cb1b8387015261007e6103a6565b600493848252630aca892b60e31b818301528751958487116103765760009687549960019a8b81811c9116801561036c575b858210146103595790818784931161030b575b5084908783116001146102a6578a9261029b575b5050600019600383901b1c1916908a1b1787555b82519485116102885788548981811c9116801561027e575b8382101461026b57908185879695949311610217575b50819385116001146101b757505085926101ac575b5050600019600383901b1c191690851b1784555b82156101965750600a80546001600160a01b0319811684179091556040519416907f8be0079c531659141344cd1fd0a4f28419497f9722a3daafe3b4186f6b6457e09080a3600c55613a8b90816103c68239f35b60249160405191631e4fbdf760e01b8352820152fd5b01519050388061012e565b899593929193168588528388209388905b8282106101fe57505084116101e5575b505050811b018455610142565b015160001960f88460031b161c191690553880806101d8565b8484015186558b979095019493840193908101906101c8565b9091929394508988528288208580880160051c820192858910610262575b9188978d9297969594930160051c01915b828110610254575050610119565b8a81558897508c9101610246565b92508192610235565b634e487b7160e01b885260228752602488fd5b90607f1690610103565b634e487b7160e01b875260418652602487fd5b0151905038806100d7565b90848d9416918b8052868c20928c5b888282106102ec57505084116102d3575b505050811b0187556100eb565b015160001960f88460031b161c191690553880806102c6565b91929395968291958786015181550195019301908e95949392916102b5565b909150898052848a208780850160051c820192878610610350575b918e91869594930160051c01915b8281106103425750506100c3565b8c81558594508e9101610334565b92508192610326565b634e487b7160e01b8a526022895260248afd5b90607f16906100b0565b604186634e487b7160e01b6000525260246000fd5b600080fd5b634e487b7160e01b600052604160045260246000fd5b60408051919082016001600160401b038111838210176103905760405256fe608080604052600436101561001357600080fd5b60003560e01c90816301ffc9a7146127575750806304cd52941461273957806306fdde031461268e578063081812fc14612650578063095ea7b3146125695780630b79143014612466578063110f26971461240c57806318160ddd146123ee57806323b872dd146123d757806324c14160146123845780632f745c59146123005780633a2fdf6714611cd457806342842e0e14611cac5780634f6ccce714611c565780636160694014611c2b5780636352211e14611bfb57806367dd74ca14611a7d5780636df0baaf14611a3a57806370a0823114611a0f578063715018a6146119b25780637510cfaf14611995578063757741001461146a578063880ad44e146113ab5780638da5cb5b146113825780639203574c1461135a57806395d89b41146112775780639ca9cd80146111755780639e9580f614610f74578063a22cb46514610ec9578063a3c28dfc14610e93578063b88d4fde14610e34578063bd7e0fd214610de3578063bdc6ffd014610a0d578063c5d3404714610494578063c874e10714610398578063c87b56dd14610341578063e985e9c5146102eb578063ec38d5a01461025f5763f2fde38b146101cc57600080fd5b3461025a57602036600319011261025a576101e561281c565b6101ed6136a3565b6001600160a01b0390811690811561024157600a54826bffffffffffffffffffffffff60a01b821617600a55167f8be0079c531659141344cd1fd0a4f28419497f9722a3daafe3b4186f6b6457e0600080a3005b604051631e4fbdf760e01b815260006004820152602490fd5b600080fd5b3461025a57602036600319011261025a57600435600052600b6020526102d260406000206102976102908254612848565b1515613348565b600481015460058201549160078101546102bd60018060a01b03600884015416926128da565b9360405195869560a0875260a08701906127dc565b9360208601526040850152606084015260808301520390f35b3461025a57604036600319011261025a5761030461281c565b61030c612832565b9060018060a01b03809116600052600560205260406000209116600052602052602060ff604060002054166040519015158152f35b3461025a57602036600319011261025a5761035d600435613668565b50600060405161036c8161289e565b5261039460405161037c8161289e565b600081526040519182916020835260208301906127dc565b0390f35b3461025a57604036600319011261025a576004356024356001600160401b03811161025a576103cb903690600401612a1d565b81600052600b60205260406000208054916103e861029084612848565b60088201546001600160a01b0316330361044f57600061044a9261043561042f7f84c5489fa8e11aa7c058ae6093941c08f27e73b674e41ababdc74d3125ae5e7d96612848565b82613264565b556040519182916020835260208301906127dc565b0390a2005b60405162461bcd60e51b815260206004820152601f60248201527f4f6e6c79206576656e74206f7267616e697a65722063616e2063616e63656c006044820152606490fd5b3461025a5761012036600319011261025a576004356001600160401b03811161025a576104c5903690600401612a1d565b6024356001600160401b03811161025a576104e4903690600401612a1d565b906044356001600160401b03811161025a57610504903690600401612a1d565b9160e435801515810361025a576105196136a3565b61052583511515613143565b610532608435151561318f565b61053f60a43515156131e7565b60c435156109b3576105576064610104351115613401565b42606435111561096f57600c549361056e8561323e565b600c556040519261057e84612882565b848452602084015260408301526064356060830152608435608083015260a43560a083015260c43560c0830152600060e0830152336101008301526001610120830152600061014083015215156101608201526101043561018082015282600052600b60205260406000209080518051906001600160401b0382116108655781906106138261060d8754612848565b8761328c565b602090601f8311600114610903576000926108f8575b50508160011b916000199060031b1c19161782555b60208101518051906001600160401b038211610865578190610670826106676001880154612848565b6001880161328c565b602090601f83116001146108865760009261087b575b50508160011b916000199060031b1c19161760018301555b60408101518051906001600160401b038211610865576106ce826106c56002870154612848565b6002870161328c565b602090601f83116001146107db57600080516020613a3683398151915295938361044a9694600b94610180946000926107d0575b50508160011b916000199060031b1c19161760028501555b606081015160038501556080810151600485015560a080820151600586015560c0820151600686015560e082015160078601556101008201516008860180546101208501516001600160a81b03199091166001600160a01b03939093169290921791151590921b60ff60a01b1617905561014081015160098501556107b56101608201511515600a86019060ff801983541691151516179055565b0151910155604051918291339060a4359060843590856132d1565b015190508a80610702565b906002850160005260206000209160005b601f198516811061084d575093600184600b9461018094600080516020613a368339815191529a9861044a9a98601f19811610610834575b505050811b01600285015561071a565b015160001960f88460031b161c191690558a8080610824565b919260206001819286850151815501940192016107ec565b634e487b7160e01b600052604160045260246000fd5b015190508680610686565b9250600185016000526020600020906000935b601f19841685106108dd576001945083601f198116106108c4575b505050811b01600183015561069e565b015160001960f88460031b161c191690558680806108b4565b81810151835560209485019460019093019290910190610899565b015190508680610629565b9250846000526020600020906000935b601f1984168510610954576001945083601f1981161061093b575b505050811b01825561063e565b015160001960f88460031b161c1916905586808061092e565b81810151835560209485019460019093019290910190610913565b606460405162461bcd60e51b815260206004820152602060248201527f4576656e742064617465206d75737420626520696e20746865206675747572656044820152fd5b60405162461bcd60e51b815260206004820152602c60248201527f4d6178207469636b65747320706572206275796572206d75737420626520677260448201526b06561746572207468616e20360a41b6064820152608490fd5b604036600319011261025a576001600160401b0360043581811161025a57610a39903690600401612a3b565b602491823590811161025a57610a53903690600401612a3b565b610a6082518251146130cd565b815115610d9f576014825111610d47576000908251610a97610a81826129b4565b91610a8f60405193846128b9565b8083526129b4565b90602091601f19019082369101376000925b8451841015610c0857610abc8486613119565b51610ac78585613119565b51908115610bc457600a8211610b6e57600052600b83526040600020610af06102908254612848565b610afe82600783015461338b565b600582015410610b2a5791610b1c610b229260046001950154613609565b9061338b565b930192610aa9565b60405162461bcd60e51b815260048101859052601c818a01527f4e6f7420656e6f756768207469636b65747320617661696c61626c65000000006044820152606490fd5b60405162461bcd60e51b8152600481018590526029818a01527f43616e6e6f7420627579206d6f7265207468616e203130207469636b657473206044820152681c195c88195d995b9d60ba1b6064820152608490fd5b60405162461bcd60e51b815260048101859052601f818a01527f5175616e74697479206d7573742062652067726561746572207468616e2030006044820152606490fd5b93909250833410610cf85760005b8151811015610cc957610c298183613119565b51610c348285613119565b519080600052600b86526040600020600760009101905b838110610c5e5750505050600101610c16565b610c68825461323e565b82556008549060018201809211610cb45781610c86600193336136cf565b3390857f085ec0eff4bf526b0dd054adffcd8bd8da42126a1133ce302042973f32029fb0600080a401610c4b565b8a634e487b7160e01b60005260116004526000fd5b84803411610cd357005b6000808080610ce5610cf6953461333b565b335af1610cf0613398565b5061361c565b005b608483866040519162461bcd60e51b83526004830152808201527f496e73756666696369656e74207061796d656e7420666f7220616c6c207469636044820152636b65747360e01b6064820152fd5b60405162461bcd60e51b815260206004820152602b818501527f43616e6e6f74206275792066726f6d206d6f7265207468616e2032302065766560448201526a6e7473206174206f6e636560a81b6064820152608490fd5b60405162461bcd60e51b8152602060048201526017818501527f43616e6e6f7420627579207a65726f207469636b6574730000000000000000006044820152606490fd5b3461025a57604036600319011261025a576020600435610e01612832565b610e0a82613668565b6001600160a01b039081169116149081610e2a575b506040519015158152f35b9050151582610e1f565b3461025a57608036600319011261025a57610e4d61281c565b610e55612832565b606435916001600160401b03831161025a573660238401121561025a57610e89610cf69336906024816004013591016129e6565b91604435916134de565b3461025a57602036600319011261025a57600435600052600b6020526020610ebf604060002054612848565b1515604051908152f35b3461025a57604036600319011261025a57610ee261281c565b610eea612a9b565b6001600160a01b03909116908115610f5b57336000526005602052604060002082600052602052610f2b8160406000209060ff801983541691151516179055565b60405190151581527f17307eab39ab6107e8899845ad3d59bd9653f200f220920489ca2b5937696c3160203392a3005b604051630b61174360e31b815260048101839052602490fd5b3461025a57606036600319011261025a576001600160401b0360043581811161025a57610fa5903690600401612a1d565b604435602435610fb36136a3565b610fbf83511515613143565b610fca81151561318f565b610fd58215156131e7565b600c5492610fe28461323e565b600c5583600052602094600b6020526040600020958251918211610865576110148261100e8954612848565b8961328c565b602090601f83116001146110f65750600b600080516020613a3683398151915296978361044a959460009485916110eb575b508160011b9185199060031b1c19161781555b826001820161106b61042f8254612848565b55826002820161107e61042f8254612848565b55826003820155856004820155866005820155866006820155826007820155600881018054600160a01b9060ff60a01b193316906affffffffffffffffffffff60a81b1617179055826009820155600a8101600160ff1982541617905501556040519384933392856132d1565b90508501518b611046565b90601f198316886000526020600020926000905b82821061115d57505097600184600094600b9461044a9897600080516020613a368339815191529c9d10611145575b5050811b018155611059565b870151861960f88460031b161c191690558b80611139565b80600185968294968a0151815501950193019061110a565b3461025a57602036600319011261025a57600435600052600b60205260406000206111a36102908254612848565b61121460038201546004830154600584015460ff6006860154600787015460088801549183600a8a01541694600b8a0154966112308b6112226111fd60026111f660016111ef866128da565b95016128da565b9f016128da565b916040519e8f9e8f926101808085528401906127dc565b9160208184039101526127dc565b8c810360408e0152906127dc565b9860608b015260808a015260a089015260c088015260e087015260018060a01b03811661010087015260a01c16151561012085015215156101408401526101608301520390f35b3461025a57600036600319011261025a5760405160006001826001549261129d84612848565b928383526020948560018216918260001461133a5750506001146112dd575b506112c9925003836128b9565b6103946040519282849384528301906127dc565b84915060016000527fb10e2d527612073b26eecdfd717e6a320cf44b4afac2b0732d9fcbe2b7fa0cf6906000915b8583106113225750506112c99350820101856112bc565b8054838901850152879450869390920191810161130b565b60ff1916858201526112c995151560051b85010192508791506112bc9050565b3461025a57602036600319011261025a57602061137860043561344d565b6040519015158152f35b3461025a57600036600319011261025a57600a546040516001600160a01b039091168152602090f35b3461025a57606036600319011261025a576113c4612a9b565b60443590600435600052600b60205260406000206113e56102908254612848565b60088101546001600160a01b0316330361142557611421600b9261140c6064861115613401565b600a83019060ff801983541691151516179055565b0155005b60405162461bcd60e51b815260206004820152601f60248201527f4f6e6c79206576656e74206f7267616e697a65722063616e20757064617465006044820152606490fd5b3461025a5760208060031936011261025a5760043561148a811515612aaa565b61149381613668565b6001600160a01b039290339084160361195e5781600052600b815260406000206114bd8154612848565b6119235760040154928260005260028252806040600020541615158061191b575b6117d9575b8260005260028252604060002054168015908115806117a6575b6000858152600285526040812080546001600160a01b03191690558590837fddf252ad1be2c89b69c2b068fc378daa952ba7f163c4a11628f55a4df523b3ef8280a48215611721575050600854836000526009835280604060002055600160401b81101561086557836115798260016115929401600855613304565b90919082549060031b91821b91600019901b1916179055565b6008546000199081810190811161170b5784600052600984526115ba60406000205491613304565b90549060031b1c6115ce8161157984613304565b60005260098452604060002055836000526000604081205560085480156116f5578101906115fb82613304565b909182549160031b1b191690556008556116dc5782471061169857600080808086335af1611627613398565b501561165b577ff751b3c2d8949504d71a63fd259a5a8a1b0c05099b351e3834fa63ea01dc504a82916040519485523394a4005b6064906040519062461bcd60e51b8252600482015260166024820152751499599d5b99081d1c985b9cd9995c8819985a5b195960521b6044820152fd5b6064906040519062461bcd60e51b82526004820152601d60248201527f496e73756666696369656e7420636f6e74726163742062616c616e63650000006044820152fd5b604051637e27328960e01b815260048101839052602490fd5b634e487b7160e01b600052603160045260246000fd5b634e487b7160e01b600052601160045260246000fd5b61172c575b50611592565b611735816133c8565b8460005260078452604060002054916000526006845260406000209181810361177b575b5084600052600784526000604081205560005282526000604081205584611726565b8160005282855260406000205481600052806040600020556000526007855260406000205586611759565b60008581526004602052604080822080546001600160a01b031916905583825260038652902080546000190190556114fd565b600b8252604060002060ff600a82015416156118c257600b81015480611801575b50506114e3565b6118116064916004840154613609565b04908161188157600080809385600883950154165af161182f613398565b501561183c5784806117fa565b60405162461bcd60e51b815260048101839052601b60248201527f5472616e7366657220666565207061796d656e74206661696c656400000000006044820152606490fd5b60405162461bcd60e51b8152600481018590526019602482015278496e73756666696369656e74207472616e736665722066656560381b6044820152606490fd5b60405162461bcd60e51b815260048101849052602b60248201527f5469636b6574207472616e7366657273206e6f7420616c6c6f77656420666f7260448201526a081d1a1a5cc8195d995b9d60aa1b6064820152608490fd5b5060006114de565b60405162461bcd60e51b8152600481018390526013602482015272115d995b9d081b9bdd0818d85b98d95b1b1959606a1b6044820152606490fd5b6064906040519062461bcd60e51b82526004820152601060248201526f2737ba103a34b1b5b2ba1037bbb732b960811b6044820152fd5b3461025a57602036600319011261025a5760206040516004358152f35b3461025a57600036600319011261025a576119cb6136a3565b600a80546001600160a01b031981169091556000906001600160a01b03167f8be0079c531659141344cd1fd0a4f28419497f9722a3daafe3b4186f6b6457e08280a3005b3461025a57602036600319011261025a576020611a32611a2d61281c565b6133c8565b604051908152f35b3461025a57602036600319011261025a57600435600052600b6020526020611a326040600020611a6d6102908254612848565b600760058201549101549061333b565b602036600319011261025a5760043580600052600b6020526040600020611aa76102908254612848565b6004810154803403611bb657600782018054926005810154841015611b7d57600801546001600160a01b031692611add9061323e565b9055600854916001830180931161170b5760008080938193611aff87336136cf565b5af1611b09613398565b5015611b385733917f085ec0eff4bf526b0dd054adffcd8bd8da42126a1133ce302042973f32029fb0600080a4005b60405162461bcd60e51b815260206004820152601760248201527f5061796d656e74207472616e73666572206661696c65640000000000000000006044820152606490fd5b60405162461bcd60e51b8152602060048201526011602482015270115d995b9d081a5cc81cdbdb19081bdd5d607a1b6044820152606490fd5b60405162461bcd60e51b815260206004820152601b60248201527f496e636f7272656374207469636b65742070726963652073656e7400000000006044820152606490fd5b3461025a57602036600319011261025a576020611c19600435613668565b6040516001600160a01b039091168152f35b3461025a57600036600319011261025a57600c54600019810190811161170b57602090604051908152f35b3461025a57602036600319011261025a57600435600854811015611c8d57611c7f602091613304565b90546040519160031b1c8152f35b6044906040519063295f44f760e21b8252600060048301526024820152fd5b3461025a57610cf6611cbd3661297f565b9060405192611ccb8461289e565b600084526134de565b3461025a57606036600319011261025a576004356001600160401b03811161025a573660238201121561025a578060040135611d0f816129b4565b91611d1d60405193846128b9565b8183526024602084019260051b8201019036821161025a5760248101925b8284106122d157846024356001600160401b03811161025a57611d62903690600401612a3b565b906044356001600160401b03811161025a57611d82903690600401612a3b565b90611d8b6136a3565b611d9881518451146130cd565b611da581518351146130cd565b80511561228c5760328151116122355760005b8151811015610cf657611dd7611dce8284613119565b51511515613143565b611dec611de48286613119565b51151561318f565b611e01611df98285613119565b5115156131e7565b600c805490611e0f8261323e565b9055611e1b8284613119565b51611e268387613119565b51611e318487613119565b51611e3c8588613119565b519160405193611e4b85612882565b8452604051611e598161289e565b600081526020850152604051611e6e8161289e565b60008152604085015260006060850152608084015260a083015260c0820152600060e082015233610100820152600161012082015260006101408201526001610160820152600061018082015281600052600b60205260406000209080518051906001600160401b038211610865578190611eed8261060d8754612848565b602090601f83116001146121cd576000926121c2575b50508160011b916000199060031b1c19161782555b60208101518051906001600160401b038211610865578190611f41826106676001880154612848565b602090601f831160011461215157600092612146575b50508160011b916000199060031b1c19161760018301555b60408101518051906001600160401b03821161086557611f96826106c56002870154612848565b602090601f83116001146120cc579282600b93610180936001999897966000926120c1575b5050600019600383901b1c191690881b1760028501555b606081015160038501556080810151600485015560a080820151600586015560c0820151600686015560e0820151600786015561010082015160088601805461012085015160ff60a01b901515851b166001600160a81b0319909116938b901b8b900390921660ff60a01b19169290921717905561014081015160098501556120716101608201511515600a86019060ff801983541691151516179055565b0151910155600080516020613a3683398151915261208f8386613119565b5161209a8489613119565b516120b86120a8868a613119565b51926040519384933392856132d1565b0390a201611db8565b015190508c80611fbb565b906002850160005260206000209160005b601f198516811061212e57508361018093600199989796938a93600b97601f19811610612115575b505050811b016002850155611fd2565b015160001960f88460031b161c191690558c8080612105565b818301518455600190930192602092830192016120dd565b015190508980611f57565b91506001850160005260206000209160005b601f19851681106121aa575090839291600194601f19811610612191575b505050811b016001830155611f6f565b015160001960f88460031b161c19169055898080612181565b81830151845560019093019260209283019201612163565b015190508980611f03565b60008681526020812093505b601f198516811061221d575090839291600194601f19811610612204575b505050811b018255611f18565b015160001960f88460031b161c191690558980806121f7565b818301518455600190930192602092830192016121d9565b60405162461bcd60e51b815260206004820152602960248201527f43616e6e6f7420637265617465206d6f7265207468616e203530206576656e7460448201526873206174206f6e636560b81b6064820152608490fd5b60405162461bcd60e51b815260206004820152601960248201527f43616e6e6f7420637265617465207a65726f206576656e7473000000000000006044820152606490fd5b83356001600160401b03811161025a576020916122f5839260243691870101612a1d565b815201930192611d3b565b3461025a57604036600319011261025a5761231961281c565b60243590612326816133c8565b8210156123595760018060a01b031660005260066020526040600020906000526020526020604060002054604051908152f35b60405163295f44f760e21b81526001600160a01b039190911660048201526024810191909152604490fd5b3461025a57602036600319011261025a576123a0600435612fbe565b60405193845260806020850181905284936123bd918501906127dc565b60408401929092526001600160a01b031660608301520390f35b3461025a57610cf66123e83661297f565b91612b9a565b3461025a57600036600319011261025a576020600854604051908152f35b3461025a57602036600319011261025a57602060043580600052600b8252612438604060002054612848565b15908161245c575b8161245057506040519015158152f35b9050600c541182610e1f565b8015159150612440565b3461025a57602036600319011261025a57600435600052600b6020526040600020612490816128da565b61249c600183016128da565b916124a9600282016128da565b600382015491600481015460058201546006830154600784015490600885015492600986015494600a87015460ff1696600b0154976040519b8c9b8c6101a08091528d016124f6916127dc565b8c810360208e0152612507916127dc565b8b810360408d0152612518916127dc565b9860608b015260808a015260a089015260c088015260e0870152600160a01b60019003811661010087015260a01c60ff16151561012086015261014085015215156101608401526101808301520390f35b3461025a57604036600319011261025a5761258261281c565b60243561258e81613668565b3315158061263d575b80612610575b6125f8576001600160a01b039283169282918491167f8c5be1e5ebec7d5bd14f71427d1e84f3dd0314c0f7b2291e5b200ac8c7c3b925600080a4600090815260046020526040902080546001600160a01b0319169091179055005b60405163a9fbf51f60e01b8152336004820152602490fd5b5060018060a01b038116600052600560205260406000203360005260205260ff604060002054161561259d565b506001600160a01b038116331415612597565b3461025a57602036600319011261025a5760043561266d81613668565b506000526004602052602060018060a01b0360406000205416604051908152f35b3461025a57600036600319011261025a576040516000805490826126b183612848565b918282526020936001908560018216918260001461133a5750506001146126df57506112c9925003836128b9565b6000808052859250907f290decd9548b62a8d60345a988386fc84ba6bc95484008f6362f93160ef3e5635b8583106127215750506112c99350820101856112bc565b8054838901850152879450869390920191810161270a565b3461025a57602036600319011261025a576020611a32600435612b08565b3461025a57602036600319011261025a576004359063ffffffff60e01b821680920361025a5760209163780e9d6360e01b8114908115612799575b5015158152f35b6380ac58cd60e01b8114915081156127cb575b81156127ba575b5083612792565b6301ffc9a760e01b149050836127b3565b635b5e139f60e01b811491506127ac565b919082519283825260005b848110612808575050826000602080949584010152601f8019910116010190565b6020818301810151848301820152016127e7565b600435906001600160a01b038216820361025a57565b602435906001600160a01b038216820361025a57565b90600182811c92168015612878575b602083101461286257565b634e487b7160e01b600052602260045260246000fd5b91607f1691612857565b6101a081019081106001600160401b0382111761086557604052565b602081019081106001600160401b0382111761086557604052565b90601f801991011681019081106001600160401b0382111761086557604052565b906040519182600082546128ed81612848565b9081845260209460019160018116908160001461295d575060011461291e575b50505061291c925003836128b9565b565b600090815285812095935091905b81831061294557505061291c935082010138808061290d565b8554888401850152948501948794509183019161292c565b9250505061291c94925060ff191682840152151560051b82010138808061290d565b606090600319011261025a576001600160a01b0390600435828116810361025a5791602435908116810361025a579060443590565b6001600160401b0381116108655760051b60200190565b6001600160401b03811161086557601f01601f191660200190565b9291926129f2826129cb565b91612a0060405193846128b9565b82948184528183011161025a578281602093846000960137010152565b9080601f8301121561025a57816020612a38933591016129e6565b90565b9080601f8301121561025a576020908235612a55816129b4565b93612a6360405195866128b9565b81855260208086019260051b82010192831161025a57602001905b828210612a8c575050505090565b81358152908301908301612a7e565b60243590811515820361025a57565b15612ab157565b60405162461bcd60e51b815260206004820152601060248201526f125b9d985b1a59081d1bdad95b88125160821b6044820152606490fd5b9081602091031261025a57516001600160a01b038116810361025a5790565b612b13811515612aaa565b6040516331a9108f60e11b815260048101829052602081602481305afa9081612b6b575b50612b425750600090565b600052600b6020526040600020612b598154612848565b15612b645750600090565b6004015490565b612b8c9060203d602011612b93575b612b8481836128b9565b810190612ae9565b5038612b37565b503d612b7a565b6001600160a01b0382811693918415612fa55760009483865260209560028752604096848883205416151580612f9d575b612e46575b858252600281528488832054169633151580612db8575b5087158015612d85575b84845260038352898420805460010190558784526002835289842080546001600160a01b0319168617905587858a7fddf252ad1be2c89b69c2b068fc378daa952ba7f163c4a11628f55a4df523b3ef8780a415612d195760085487845260098352808a852055600160401b811015612d055787611579826001612c779401600855613304565b838803612cb3575b505050501692838303612c925750505050565b6064945051926364283d7b60e01b8452600484015260248301526044820152fd5b612cbc906133c8565b600019810193908411612cf15782916007918a9452600681528383208584528152878484205587835252205538808080612c7f565b634e487b7160e01b83526011600452602483fd5b634e487b7160e01b84526041600452602484fd5b878414612c7757612d29886133c8565b878452600783528984205490898552600684528a852091818103612d63575b5088855260078452848b812055845282528289812055612c77565b8186528285528b862054818752808d8820558652600785528b86205538612d48565b600088815260046020526040902080546001600160a01b0319169055888452600383528984208054600019019055612bf1565b80612e05575b15612dc95738612be7565b888789612de6576024915190637e27328960e01b82526004820152fd5b905163177e802f60e01b81523360048201526024810191909152604490fd5b503388148015612e2a575b80612dbe57508683526004825233868a8520541614612dbe565b5087835260058252888320338452825260ff8984205416612e10565b600b815287822060ff600a8201541615612f4557600b81015480612e6c575b5050612bd0565b612e7c6064916004840154613609565b0490813410612f0557838080848a600883960154165af1612e9b613398565b5015612ec1578281341115612e6557808080610ce5612eba953461333b565b3882612e65565b885162461bcd60e51b815260048101839052601b60248201527f5472616e7366657220666565207061796d656e74206661696c656400000000006044820152606490fd5b895162461bcd60e51b8152600481018490526019602482015278496e73756666696369656e74207472616e736665722066656560381b6044820152606490fd5b885162461bcd60e51b815260048101839052602b60248201527f5469636b6574207472616e7366657273206e6f7420616c6c6f77656420666f7260448201526a081d1a1a5cc8195d995b9d60aa1b6064820152608490fd5b506001612bcb565b604051633250574960e11b815260006004820152602490fd5b612fc9811515612aaa565b6040918251916331a9108f60e11b83528060048401526020928381602481305afa600091816130ae575b5061303357845162461bcd60e51b8152600481018590526014602482015273151bdad95b88191bd95cc81b9bdd08195e1a5cdd60621b6044820152606490fd5b929091929180600052600b825261304d8560002054612848565b61308b57938051918183018381106001600160401b03821117610865576c155b9adb9bdddb88115d995b9d609a1b9252600d83528201529160009190565b929390600b908460005252600020926130a9600485015493946128da565b929190565b6130c6919250853d8711612b9357612b8481836128b9565b9038612ff3565b156130d457565b60405162461bcd60e51b815260206004820152601860248201527f4d69736d617463686564206172726179206c656e6774687300000000000000006044820152606490fd5b805182101561312d5760209160051b010190565b634e487b7160e01b600052603260045260246000fd5b1561314a57565b60405162461bcd60e51b815260206004820152601a60248201527f4576656e74206e616d652063616e6e6f7420626520656d7074790000000000006044820152606490fd5b1561319657565b60405162461bcd60e51b815260206004820152602360248201527f5469636b6574207072696365206d75737420626520677265617465722074686160448201526206e20360ec1b6064820152608490fd5b156131ee57565b60405162461bcd60e51b815260206004820152602260248201527f4d6178207469636b657473206d7573742062652067726561746572207468616e604482015261020360f41b6064820152608490fd5b600019811461170b5760010190565b818110613258575050565b6000815560010161324d565b90601f8111613271575050565b61291c91600052601f6020600020910160051c81019061324d565b9190601f811161329b57505050565b61291c926000526020600020906020601f840160051c830193106132c7575b601f0160051c019061324d565b90915081906132ba565b926132e96060939695926080865260808601906127dc565b602085019690965260408401526001600160a01b0316910152565b60085481101561312d5760086000527ff3f7a9fe364faab93b216da50a3214154f22a0a2b415b23a84c8169e8b636ee30190600090565b9190820391821161170b57565b1561334f57565b60405162461bcd60e51b8152602060048201526014602482015273115d995b9d08191bd95cc81b9bdd08195e1a5cdd60621b6044820152606490fd5b9190820180921161170b57565b3d156133c3573d906133a9826129cb565b916133b760405193846128b9565b82523d6000602084013e565b606090565b6001600160a01b031680156133e857600052600360205260406000205490565b6040516322718ad960e21b815260006004820152602490fd5b1561340857565b60405162461bcd60e51b815260206004820152601f60248201527f5472616e73666572206665652063616e6e6f74206578636565642031303025006044820152606490fd5b80156134d8576040516331a9108f60e11b815260048101829052602081602481305afa600091816134b7575b50613485575050600090565b6001600160a01b03163314908161349a575090565b9050600052600b6020526134b2604060002054612848565b151590565b6134d191925060203d602011612b9357612b8481836128b9565b9038613479565b50600090565b91906134eb828285612b9a565b803b6134f8575b50505050565b61353a60018060a01b0380921694604051938493630a85bd0160e11b9687865233600487015216602485015260448401526080606484015260848301906127dc565b03906020816000938185885af1908290826135b9575b5050613588578261355f613398565b805191908261358157604051633250574960e11b815260048101839052602490fd5b6020915001fd5b6001600160e01b031916036135a15750388080806134f2565b60249060405190633250574960e11b82526004820152fd5b909192506020813d602011613601575b816135d6602093836128b9565b810103126135fd5751906001600160e01b0319821682036135fa5750903880613550565b80fd5b5080fd5b3d91506135c9565b8181029291811591840414171561170b57565b1561362357565b60405162461bcd60e51b815260206004820152601c60248201527f457863657373207061796d656e7420726566756e64206661696c6564000000006044820152606490fd5b6000818152600260205260409020546001600160a01b031690811561368b575090565b60249060405190637e27328960e01b82526004820152fd5b600a546001600160a01b031633036136b757565b60405163118cdaa760e01b8152336004820152602490fd5b6001600160a01b03908082168015612fa55760009380855260209060028252604094808688205416151580613a2d575b6138d6575b8187526002835285872054169384159484861596876138a3575b818a5260038652888a2080546001019055848a5260028652888a2080546001600160a01b031916831790558482847fddf252ad1be2c89b69c2b068fc378daa952ba7f163c4a11628f55a4df523b3ef8d80a41561383557506008548389526009855280888a2055600160401b81101561382157906137a7846115798460018a9601600855613304565b036137d0575b505050506137b9575050565b6024925051906339e3563760e11b82526004820152fd5b6137d9906133c8565b60001981019390841161380d57865260068252848620838752825284862081905585526007905282842055388080806137ad565b634e487b7160e01b87526011600452602487fd5b634e487b7160e01b89526041600452602489fd5b908082146137a757613846816133c8565b848a5260078652888a205490828b5260068752898b2091818103613880575b50858b52600787528a8a8120558a52855288888120556137a7565b818c528288528a8c2054818d528b8d208190558c52600788528a8c205538613865565b600085815260046020526040902080546001600160a01b0319169055828a5260038652888a20805460001901905561371e565b600b835285872060ff600a82015416156139d557600b810154806138fc575b5050613704565b61390c6064916004840154613609565b0490813410613995578880808486600883960154165af161392b613398565b50156139515787813411156138f557808080610ce561394a953461333b565b38876138f5565b865162461bcd60e51b815260048101859052601b60248201527f5472616e7366657220666565207061796d656e74206661696c656400000000006044820152606490fd5b875162461bcd60e51b8152600481018690526019602482015278496e73756666696369656e74207472616e736665722066656560381b6044820152606490fd5b865162461bcd60e51b815260048101859052602b60248201527f5469636b6574207472616e7366657273206e6f7420616c6c6f77656420666f7260448201526a081d1a1a5cc8195d995b9d60aa1b6064820152608490fd5b5060016136ff56fe818cdd1d6860d493731be2106680d34811f56c9ed9d66dbf56a7c2dcc59c9be5a264697066735822122004a46ebfe6dabad9eda994aabab025e7f674a63fe3ba156d4bc37bbdcccba0ba64736f6c63430008190033","linkReferences":{}},"methodIdentifiers":{"approve(address,uint256)":"095ea7b3","balanceOf(address)":"70a08231","batchBuyTickets(uint256[],uint256[])":"bdc6ffd0","batchCreateEvents(string[],uint256[],uint256[])":"3a2fdf67","buyTicket(uint256)":"67dd74ca","cancelEvent(uint256,string)":"c874e107","createEnhancedEvent(string,string,string,uint256,uint256,uint256,uint256,bool,uint256)":"c5d34047","createEvent(string,uint256,uint256)":"9e9580f6","eventExists(uint256)":"a3c28dfc","events(uint256)":"0b791430","getApproved(uint256)":"081812fc","getEventDetails(uint256)":"ec38d5a0","getFullEventDetails(uint256)":"9ca9cd80","getRefundAmount(uint256)":"04cd5294","getTicketDetails(uint256)":"24c14160","getTicketEventId(uint256)":"7510cfaf","getTicketsAvailable(uint256)":"6df0baaf","getTotalEvents()":"61606940","isApprovedForAll(address,address)":"e985e9c5","isEventCancelled(uint256)":"110f2697","isValidForEntry(uint256)":"9203574c","name()":"06fdde03","owner()":"8da5cb5b","ownerOf(uint256)":"6352211e","refundTicket(uint256)":"75774100","renounceOwnership()":"715018a6","safeTransferFrom(address,address,uint256)":"42842e0e","safeTransferFrom(address,address,uint256,bytes)":"b88d4fde","setApprovalForAll(address,bool)":"a22cb465","supportsInterface(bytes4)":"01ffc9a7","symbol()":"95d89b41","tokenByIndex(uint256)":"4f6ccce7","tokenOfOwnerByIndex(address,uint256)":"2f745c59","tokenURI(uint256)":"c87b56dd","totalSupply()":"18160ddd","transferFrom(address,address,uint256)":"23b872dd","transferOwnership(address)":"f2fde38b","updateEventSettings(uint256,bool,uint256)":"880ad44e","verifyTicketOwnership(uint256,address)":"bd7e0fd2"},"id":38}