{"abi":[{"type":"constructor","inputs":[{"name":"initialOwner","type":"address","internalType":"address"}],"stateMutability":"nonpayable"},{"type":"function","name":"approve","inputs":[{"name":"to","type":"address","internalType":"address"},{"name":"tokenId","type":"uint256","internalType":"uint256"}],"outputs":[],"stateMutability":"nonpayable"},{"type":"function","name":"balanceOf","inputs":[{"name":"owner","type":"address","internalType":"address"}],"outputs":[{"name":"","type":"uint256","internalType":"uint256"}],"stateMutability":"view"},{"type":"function","name":"buyTicket","inputs":[{"name":"eventId","type":"uint256","internalType":"uint256"}],"outputs":[],"stateMutability":"payable"},{"type":"function","name":"createEvent","inputs":[{"name":"name","type":"string","internalType":"string"},{"name":"ticketPrice","type":"uint256","internalType":"uint256"},{"name":"maxTickets","type":"uint256","internalType":"uint256"}],"outputs":[],"stateMutability":"nonpayable"},{"type":"function","name":"eventExists","inputs":[{"name":"eventId","type":"uint256","internalType":"uint256"}],"outputs":[{"name":"","type":"bool","internalType":"bool"}],"stateMutability":"view"},{"type":"function","name":"events","inputs":[{"name":"","type":"uint256","internalType":"uint256"}],"outputs":[{"name":"name","type":"string","internalType":"string"},{"name":"ticketPrice","type":"uint256","internalType":"uint256"},{"name":"maxTickets","type":"uint256","internalType":"uint256"},{"name":"ticketsSold","type":"uint256","internalType":"uint256"},{"name":"organizer","type":"address","internalType":"address"}],"stateMutability":"view"},{"type":"function","name":"getApproved","inputs":[{"name":"tokenId","type":"uint256","internalType":"uint256"}],"outputs":[{"name":"","type":"address","internalType":"address"}],"stateMutability":"view"},{"type":"function","name":"getEventDetails","inputs":[{"name":"eventId","type":"uint256","internalType":"uint256"}],"outputs":[{"name":"name","type":"string","internalType":"string"},{"name":"ticketPrice","type":"uint256","internalType":"uint256"},{"name":"maxTickets","type":"uint256","internalType":"uint256"},{"name":"ticketsSold","type":"uint256","internalType":"uint256"},{"name":"organizer","type":"address","internalType":"address"}],"stateMutability":"view"},{"type":"function","name":"getTicketsAvailable","inputs":[{"name":"eventId","type":"uint256","internalType":"uint256"}],"outputs":[{"name":"","type":"uint256","internalType":"uint256"}],"stateMutability":"view"},{"type":"function","name":"getTotalEvents","inputs":[],"outputs":[{"name":"","type":"uint256","internalType":"uint256"}],"stateMutability":"view"},{"type":"function","name":"isApprovedForAll","inputs":[{"name":"owner","type":"address","internalType":"address"},{"name":"operator","type":"address","internalType":"address"}],"outputs":[{"name":"","type":"bool","internalType":"bool"}],"stateMutability":"view"},{"type":"function","name":"name","inputs":[],"outputs":[{"name":"","type":"string","internalType":"string"}],"stateMutability":"view"},{"type":"function","name":"owner","inputs":[],"outputs":[{"name":"","type":"address","internalType":"address"}],"stateMutability":"view"},{"type":"function","name":"ownerOf","inputs":[{"name":"tokenId","type":"uint256","internalType":"uint256"}],"outputs":[{"name":"","type":"address","internalType":"address"}],"stateMutability":"view"},{"type":"function","name":"renounceOwnership","inputs":[],"outputs":[],"stateMutability":"nonpayable"},{"type":"function","name":"safeTransferFrom","inputs":[{"name":"from","type":"address","internalType":"address"},{"name":"to","type":"address","internalType":"address"},{"name":"tokenId","type":"uint256","internalType":"uint256"}],"outputs":[],"stateMutability":"nonpayable"},{"type":"function","name":"safeTransferFrom","inputs":[{"name":"from","type":"address","internalType":"address"},{"name":"to","type":"address","internalType":"address"},{"name":"tokenId","type":"uint256","internalType":"uint256"},{"name":"data","type":"bytes","internalType":"bytes"}],"outputs":[],"stateMutability":"nonpayable"},{"type":"function","name":"setApprovalForAll","inputs":[{"name":"operator","type":"address","internalType":"address"},{"name":"approved","type":"bool","internalType":"bool"}],"outputs":[],"stateMutability":"nonpayable"},{"type":"function","name":"supportsInterface","inputs":[{"name":"interfaceId","type":"bytes4","internalType":"bytes4"}],"outputs":[{"name":"","type":"bool","internalType":"bool"}],"stateMutability":"view"},{"type":"function","name":"symbol","inputs":[],"outputs":[{"name":"","type":"string","internalType":"string"}],"stateMutability":"view"},{"type":"function","name":"tokenByIndex","inputs":[{"name":"index","type":"uint256","internalType":"uint256"}],"outputs":[{"name":"","type":"uint256","internalType":"uint256"}],"stateMutability":"view"},{"type":"function","name":"tokenOfOwnerByIndex","inputs":[{"name":"owner","type":"address","internalType":"address"},{"name":"index","type":"uint256","internalType":"uint256"}],"outputs":[{"name":"","type":"uint256","internalType":"uint256"}],"stateMutability":"view"},{"type":"function","name":"tokenURI","inputs":[{"name":"tokenId","type":"uint256","internalType":"uint256"}],"outputs":[{"name":"","type":"string","internalType":"string"}],"stateMutability":"view"},{"type":"function","name":"totalSupply","inputs":[],"outputs":[{"name":"","type":"uint256","internalType":"uint256"}],"stateMutability":"view"},{"type":"function","name":"transferFrom","inputs":[{"name":"from","type":"address","internalType":"address"},{"name":"to","type":"address","internalType":"address"},{"name":"tokenId","type":"uint256","internalType":"uint256"}],"outputs":[],"stateMutability":"nonpayable"},{"type":"function","name":"transferOwnership","inputs":[{"name":"newOwner","type":"address","internalType":"address"}],"outputs":[],"stateMutability":"nonpayable"},{"type":"event","name":"Approval","inputs":[{"name":"owner","type":"address","indexed":true,"internalType":"address"},{"name":"approved","type":"address","indexed":true,"internalType":"address"},{"name":"tokenId","type":"uint256","indexed":true,"internalType":"uint256"}],"anonymous":false},{"type":"event","name":"ApprovalForAll","inputs":[{"name":"owner","type":"address","indexed":true,"internalType":"address"},{"name":"operator","type":"address","indexed":true,"internalType":"address"},{"name":"approved","type":"bool","indexed":false,"internalType":"bool"}],"anonymous":false},{"type":"event","name":"EventCreated","inputs":[{"name":"eventId","type":"uint256","indexed":true,"internalType":"uint256"},{"name":"name","type":"string","indexed":false,"internalType":"string"},{"name":"ticketPrice","type":"uint256","indexed":false,"internalType":"uint256"},{"name":"maxTickets","type":"uint256","indexed":false,"internalType":"uint256"},{"name":"organizer","type":"address","indexed":false,"internalType":"address"}],"anonymous":false},{"type":"event","name":"OwnershipTransferred","inputs":[{"name":"previousOwner","type":"address","indexed":true,"internalType":"address"},{"name":"newOwner","type":"address","indexed":true,"internalType":"address"}],"anonymous":false},{"type":"event","name":"TicketMinted","inputs":[{"name":"eventId","type":"uint256","indexed":true,"internalType":"uint256"},{"name":"tokenId","type":"uint256","indexed":true,"internalType":"uint256"},{"name":"buyer","type":"address","indexed":true,"internalType":"address"}],"anonymous":false},{"type":"event","name":"Transfer","inputs":[{"name":"from","type":"address","indexed":true,"internalType":"address"},{"name":"to","type":"address","indexed":true,"internalType":"address"},{"name":"tokenId","type":"uint256","indexed":true,"internalType":"uint256"}],"anonymous":false},{"type":"error","name":"ERC721EnumerableForbiddenBatchMint","inputs":[]},{"type":"error","name":"ERC721IncorrectOwner","inputs":[{"name":"sender","type":"address","internalType":"address"},{"name":"tokenId","type":"uint256","internalType":"uint256"},{"name":"owner","type":"address","internalType":"address"}]},{"type":"error","name":"ERC721InsufficientApproval","inputs":[{"name":"operator","type":"address","internalType":"address"},{"name":"tokenId","type":"uint256","internalType":"uint256"}]},{"type":"error","name":"ERC721InvalidApprover","inputs":[{"name":"approver","type":"address","internalType":"address"}]},{"type":"error","name":"ERC721InvalidOperator","inputs":[{"name":"operator","type":"address","internalType":"address"}]},{"type":"error","name":"ERC721InvalidOwner","inputs":[{"name":"owner","type":"address","internalType":"address"}]},{"type":"error","name":"ERC721InvalidReceiver","inputs":[{"name":"receiver","type":"address","internalType":"address"}]},{"type":"error","name":"ERC721InvalidSender","inputs":[{"name":"sender","type":"address","internalType":"address"}]},{"type":"error","name":"ERC721NonexistentToken","inputs":[{"name":"tokenId","type":"uint256","internalType":"uint256"}]},{"type":"error","name":"ERC721OutOfBoundsIndex","inputs":[{"name":"owner","type":"address","internalType":"address"},{"name":"index","type":"uint256","internalType":"uint256"}]},{"type":"error","name":"OwnableInvalidOwner","inputs":[{"name":"owner","type":"address","internalType":"address"}]},{"type":"error","name":"OwnableUnauthorizedAccount","inputs":[{"name":"account","type":"address","internalType":"address"}]}],"bytecode":{"object":"0x60806040526001600c5534801561001557600080fd5b5060405161217d38038061217d83398101604081905261003491610121565b80604051806040016040528060078152602001660accae4d2a8d2f60cb1b815250604051806040016040528060048152602001630aca892b60e31b815250816000908161008191906101f2565b50600161008e82826101f2565b5050506001600160a01b0381166100bf57604051631e4fbdf760e01b81526000600482015260240160405180910390fd5b6100c8816100cf565b50506102b1565b600a80546001600160a01b038381166001600160a01b0319831681179093556040519116919082907f8be0079c531659141344cd1fd0a4f28419497f9722a3daafe3b4186f6b6457e090600090a35050565b60006020828403121561013357600080fd5b81516001600160a01b038116811461014a57600080fd5b9392505050565b634e487b7160e01b600052604160045260246000fd5b600181811c9082168061017b57607f821691505b60208210810361019b57634e487b7160e01b600052602260045260246000fd5b50919050565b601f8211156101ed576000816000526020600020601f850160051c810160208610156101ca5750805b601f850160051c820191505b818110156101e9578281556001016101d6565b5050505b505050565b81516001600160401b0381111561020b5761020b610151565b61021f816102198454610167565b846101a1565b602080601f831160018114610254576000841561023c5750858301515b600019600386901b1c1916600185901b1785556101e9565b600085815260208120601f198616915b8281101561028357888601518255948401946001909101908401610264565b50858210156102a15787850151600019600388901b60f8161c191681555b5050505050600190811b01905550565b611ebd806102c06000396000f3fe6080604052600436106101815760003560e01c80636df0baaf116100d1578063a22cb4651161008a578063c87b56dd11610064578063c87b56dd14610457578063e985e9c514610477578063ec38d5a014610497578063f2fde38b146104b757600080fd5b8063a22cb465146103f7578063a3c28dfc14610417578063b88d4fde1461043757600080fd5b80636df0baaf1461034f57806370a082311461036f578063715018a61461038f5780638da5cb5b146103a457806395d89b41146103c25780639e9580f6146103d757600080fd5b806323b872dd1161013e5780634f6ccce7116101185780634f6ccce7146102e757806361606940146103075780636352211e1461031c57806367dd74ca1461033c57600080fd5b806323b872dd146102875780632f745c59146102a757806342842e0e146102c757600080fd5b806301ffc9a71461018657806306fdde03146101bb578063081812fc146101dd578063095ea7b3146102155780630b7914301461023757806318160ddd14610268575b600080fd5b34801561019257600080fd5b506101a66101a1366004611886565b6104d7565b60405190151581526020015b60405180910390f35b3480156101c757600080fd5b506101d06104e8565b6040516101b291906118f3565b3480156101e957600080fd5b506101fd6101f8366004611906565b61057a565b6040516001600160a01b0390911681526020016101b2565b34801561022157600080fd5b5061023561023036600461193b565b6105a3565b005b34801561024357600080fd5b50610257610252366004611906565b6105b2565b6040516101b2959493929190611965565b34801561027457600080fd5b506008545b6040519081526020016101b2565b34801561029357600080fd5b506102356102a23660046119a5565b610672565b3480156102b357600080fd5b506102796102c236600461193b565b610702565b3480156102d357600080fd5b506102356102e23660046119a5565b610767565b3480156102f357600080fd5b50610279610302366004611906565b610787565b34801561031357600080fd5b506102796107e0565b34801561032857600080fd5b506101fd610337366004611906565b6107f6565b61023561034a366004611906565b610801565b34801561035b57600080fd5b5061027961036a366004611906565b610985565b34801561037b57600080fd5b5061027961038a3660046119e1565b6109dc565b34801561039b57600080fd5b50610235610a24565b3480156103b057600080fd5b50600a546001600160a01b03166101fd565b3480156103ce57600080fd5b506101d0610a38565b3480156103e357600080fd5b506102356103f2366004611a88565b610a47565b34801561040357600080fd5b50610235610412366004611aea565b610c41565b34801561042357600080fd5b506101a6610432366004611906565b610c4c565b34801561044357600080fd5b50610235610452366004611b26565b610c72565b34801561046357600080fd5b506101d0610472366004611906565b610c8a565b34801561048357600080fd5b506101a6610492366004611ba2565b610cfe565b3480156104a357600080fd5b506102576104b2366004611906565b610d2c565b3480156104c357600080fd5b506102356104d23660046119e1565b610e36565b60006104e282610e74565b92915050565b6060600080546104f790611bd5565b80601f016020809104026020016040519081016040528092919081815260200182805461052390611bd5565b80156105705780601f1061054557610100808354040283529160200191610570565b820191906000526020600020905b81548152906001019060200180831161055357829003601f168201915b5050505050905090565b600061058582610e99565b506000828152600460205260409020546001600160a01b03166104e2565b6105ae828233610ed2565b5050565b600b602052600090815260409020805481906105cd90611bd5565b80601f01602080910402602001604051908101604052809291908181526020018280546105f990611bd5565b80156106465780601f1061061b57610100808354040283529160200191610646565b820191906000526020600020905b81548152906001019060200180831161062957829003601f168201915b50505050600183015460028401546003850154600490950154939491939092506001600160a01b031685565b6001600160a01b0382166106a157604051633250574960e11b8152600060048201526024015b60405180910390fd5b60006106ae838333610edf565b9050836001600160a01b0316816001600160a01b0316146106fc576040516364283d7b60e01b81526001600160a01b0380861660048301526024820184905282166044820152606401610698565b50505050565b600061070d836109dc565b821061073e5760405163295f44f760e21b81526001600160a01b038416600482015260248101839052604401610698565b506001600160a01b03919091166000908152600660209081526040808320938352929052205490565b61078283838360405180602001604052806000815250610c72565b505050565b600061079260085490565b82106107bb5760405163295f44f760e21b81526000600482015260248101839052604401610698565b600882815481106107ce576107ce611c0f565b90600052602060002001549050919050565b60006001600c546107f19190611c3b565b905090565b60006104e282610e99565b6000818152600b602052604081208054909190829061081f90611bd5565b90501161083e5760405162461bcd60e51b815260040161069890611c4e565b806001015434146108915760405162461bcd60e51b815260206004820152601b60248201527f496e636f7272656374207469636b65742070726963652073656e7400000000006044820152606401610698565b80600201548160030154106108dc5760405162461bcd60e51b8152602060048201526011602482015270115d995b9d081a5cc81cdbdb19081bdd5d607a1b6044820152606401610698565b6003810180549060006108ee83611c7c565b919050555060006108fe60085490565b610909906001611c95565b90506109153382610ef4565b60048201546040516001600160a01b03909116903480156108fc02916000818181858888f19350505050158015610950573d6000803e3d6000fd5b506040513390829085907f085ec0eff4bf526b0dd054adffcd8bd8da42126a1133ce302042973f32029fb090600090a4505050565b6000818152600b602052604081208054829082906109a290611bd5565b9050116109c15760405162461bcd60e51b815260040161069890611c4e565b806003015481600201546109d59190611c3b565b9392505050565b60006001600160a01b038216610a08576040516322718ad960e21b815260006004820152602401610698565b506001600160a01b031660009081526003602052604090205490565b610a2c610f59565b610a366000610f86565b565b6060600180546104f790611bd5565b610a4f610f59565b6000835111610aa05760405162461bcd60e51b815260206004820152601a60248201527f4576656e74206e616d652063616e6e6f7420626520656d7074790000000000006044820152606401610698565b60008211610afc5760405162461bcd60e51b815260206004820152602360248201527f5469636b6574207072696365206d75737420626520677265617465722074686160448201526206e20360ec1b6064820152608401610698565b60008111610b575760405162461bcd60e51b815260206004820152602260248201527f4d6178207469636b657473206d7573742062652067726561746572207468616e604482015261020360f41b6064820152608401610698565b600c805460009182610b6883611c7c565b909155506040805160a0810182528681526020808201879052818301869052600060608301819052336080840152848152600b90915291909120815192935090918190610bb59082611cf0565b5060208201516001820155604080830151600283015560608301516003830155608090920151600490910180546001600160a01b0319166001600160a01b039092169190911790555181907f818cdd1d6860d493731be2106680d34811f56c9ed9d66dbf56a7c2dcc59c9be590610c33908790879087903390611db0565b60405180910390a250505050565b6105ae338383610fd8565b6000818152600b602052604081208054829190610c6890611bd5565b9050119050919050565b610c7d848484610672565b6106fc3385858585611077565b6060610c9582610e99565b506000610cad60408051602081019091526000815290565b90506000815111610ccd57604051806020016040528060008152506109d5565b80610cd7846111a2565b604051602001610ce8929190611de8565b6040516020818303038152906040529392505050565b6001600160a01b03918216600090815260056020908152604080832093909416825291909152205460ff1690565b6000818152600b6020526040812080546060929182918291829182908290610d5390611bd5565b905011610d725760405162461bcd60e51b815260040161069890611c4e565b6001810154600282015460038301546004840154845485949392916001600160a01b0316908590610da290611bd5565b80601f0160208091040260200160405190810160405280929190818152602001828054610dce90611bd5565b8015610e1b5780601f10610df057610100808354040283529160200191610e1b565b820191906000526020600020905b815481529060010190602001808311610dfe57829003601f168201915b50505050509450955095509550955095505091939590929450565b610e3e610f59565b6001600160a01b038116610e6857604051631e4fbdf760e01b815260006004820152602401610698565b610e7181610f86565b50565b60006001600160e01b0319821663780e9d6360e01b14806104e257506104e282611235565b6000818152600260205260408120546001600160a01b0316806104e257604051637e27328960e01b815260048101849052602401610698565b6107828383836001611285565b6000610eec84848461138b565b949350505050565b6001600160a01b038216610f1e57604051633250574960e11b815260006004820152602401610698565b6000610f2c83836000610edf565b90506001600160a01b03811615610782576040516339e3563760e11b815260006004820152602401610698565b600a546001600160a01b03163314610a365760405163118cdaa760e01b8152336004820152602401610698565b600a80546001600160a01b038381166001600160a01b0319831681179093556040519116919082907f8be0079c531659141344cd1fd0a4f28419497f9722a3daafe3b4186f6b6457e090600090a35050565b6001600160a01b03821661100a57604051630b61174360e31b81526001600160a01b0383166004820152602401610698565b6001600160a01b03838116600081815260056020908152604080832094871680845294825291829020805460ff191686151590811790915591519182527f17307eab39ab6107e8899845ad3d59bd9653f200f220920489ca2b5937696c31910160405180910390a3505050565b6001600160a01b0383163b1561119b57604051630a85bd0160e11b81526001600160a01b0384169063150b7a02906110b9908890889087908790600401611e17565b6020604051808303816000875af19250505080156110f4575060408051601f3d908101601f191682019092526110f191810190611e54565b60015b61115d573d808015611122576040519150601f19603f3d011682016040523d82523d6000602084013e611127565b606091505b50805160000361115557604051633250574960e11b81526001600160a01b0385166004820152602401610698565b805160208201fd5b6001600160e01b03198116630a85bd0160e11b1461119957604051633250574960e11b81526001600160a01b0385166004820152602401610698565b505b5050505050565b606060006111af83611458565b600101905060008167ffffffffffffffff8111156111cf576111cf6119fc565b6040519080825280601f01601f1916602001820160405280156111f9576020820181803683370190505b5090508181016020015b600019016f181899199a1a9b1b9c1cb0b131b232b360811b600a86061a8153600a850494508461120357509392505050565b60006001600160e01b031982166380ac58cd60e01b148061126657506001600160e01b03198216635b5e139f60e01b145b806104e257506301ffc9a760e01b6001600160e01b03198316146104e2565b808061129957506001600160a01b03821615155b1561135b5760006112a984610e99565b90506001600160a01b038316158015906112d55750826001600160a01b0316816001600160a01b031614155b80156112e857506112e68184610cfe565b155b156113115760405163a9fbf51f60e01b81526001600160a01b0384166004820152602401610698565b81156113595783856001600160a01b0316826001600160a01b03167f8c5be1e5ebec7d5bd14f71427d1e84f3dd0314c0f7b2291e5b200ac8c7c3b92560405160405180910390a45b505b5050600090815260046020526040902080546001600160a01b0319166001600160a01b0392909216919091179055565b600080611399858585611530565b90506001600160a01b0381166113f6576113f184600880546000838152600960205260408120829055600182018355919091527ff3f7a9fe364faab93b216da50a3214154f22a0a2b415b23a84c8169e8b636ee30155565b611419565b846001600160a01b0316816001600160a01b031614611419576114198185611629565b6001600160a01b03851661143557611430846116aa565b610eec565b846001600160a01b0316816001600160a01b031614610eec57610eec8585611759565b60008072184f03e93ff9f4daa797ed6e38ed64bf6a1f0160401b83106114975772184f03e93ff9f4daa797ed6e38ed64bf6a1f0160401b830492506040015b6d04ee2d6d415b85acef810000000083106114c3576d04ee2d6d415b85acef8100000000830492506020015b662386f26fc1000083106114e157662386f26fc10000830492506010015b6305f5e10083106114f9576305f5e100830492506008015b612710831061150d57612710830492506004015b6064831061151f576064830492506002015b600a83106104e25760010192915050565b6000828152600260205260408120546001600160a01b039081169083161561155d5761155d8184866117a9565b6001600160a01b0381161561159b5761157a600085600080611285565b6001600160a01b038116600090815260036020526040902080546000190190555b6001600160a01b038516156115ca576001600160a01b0385166000908152600360205260409020805460010190555b60008481526002602052604080822080546001600160a01b0319166001600160a01b0389811691821790925591518793918516917fddf252ad1be2c89b69c2b068fc378daa952ba7f163c4a11628f55a4df523b3ef91a4949350505050565b6000611634836109dc565b6000838152600760209081526040808320546001600160a01b038816845260069092529091209192509081831461168b57600083815260208281526040808320548584528184208190558352600790915290208290555b6000938452600760209081526040808620869055938552525081205550565b6008546000906116bc90600190611c3b565b600083815260096020526040812054600880549394509092849081106116e4576116e4611c0f565b90600052602060002001549050806008838154811061170557611705611c0f565b600091825260208083209091019290925582815260099091526040808220849055858252812055600880548061173d5761173d611e71565b6001900381819060005260206000200160009055905550505050565b60006001611766846109dc565b6117709190611c3b565b6001600160a01b039093166000908152600660209081526040808320868452825280832085905593825260079052919091209190915550565b6117b483838361180d565b610782576001600160a01b0383166117e257604051637e27328960e01b815260048101829052602401610698565b60405163177e802f60e01b81526001600160a01b038316600482015260248101829052604401610698565b60006001600160a01b03831615801590610eec5750826001600160a01b0316846001600160a01b0316148061184757506118478484610cfe565b80610eec5750506000908152600460205260409020546001600160a01b03908116911614919050565b6001600160e01b031981168114610e7157600080fd5b60006020828403121561189857600080fd5b81356109d581611870565b60005b838110156118be5781810151838201526020016118a6565b50506000910152565b600081518084526118df8160208601602086016118a3565b601f01601f19169290920160200192915050565b6020815260006109d560208301846118c7565b60006020828403121561191857600080fd5b5035919050565b80356001600160a01b038116811461193657600080fd5b919050565b6000806040838503121561194e57600080fd5b6119578361191f565b946020939093013593505050565b60a08152600061197860a08301886118c7565b602083019690965250604081019390935260608301919091526001600160a01b0316608090910152919050565b6000806000606084860312156119ba57600080fd5b6119c38461191f565b92506119d16020850161191f565b9150604084013590509250925092565b6000602082840312156119f357600080fd5b6109d58261191f565b634e487b7160e01b600052604160045260246000fd5b600067ffffffffffffffff80841115611a2d57611a2d6119fc565b604051601f8501601f19908116603f01168101908282118183101715611a5557611a556119fc565b81604052809350858152868686011115611a6e57600080fd5b858560208301376000602087830101525050509392505050565b600080600060608486031215611a9d57600080fd5b833567ffffffffffffffff811115611ab457600080fd5b8401601f81018613611ac557600080fd5b611ad486823560208401611a12565b9660208601359650604090950135949350505050565b60008060408385031215611afd57600080fd5b611b068361191f565b915060208301358015158114611b1b57600080fd5b809150509250929050565b60008060008060808587031215611b3c57600080fd5b611b458561191f565b9350611b536020860161191f565b925060408501359150606085013567ffffffffffffffff811115611b7657600080fd5b8501601f81018713611b8757600080fd5b611b9687823560208401611a12565b91505092959194509250565b60008060408385031215611bb557600080fd5b611bbe8361191f565b9150611bcc6020840161191f565b90509250929050565b600181811c90821680611be957607f821691505b602082108103611c0957634e487b7160e01b600052602260045260246000fd5b50919050565b634e487b7160e01b600052603260045260246000fd5b634e487b7160e01b600052601160045260246000fd5b818103818111156104e2576104e2611c25565b602080825260149082015273115d995b9d08191bd95cc81b9bdd08195e1a5cdd60621b604082015260600190565b600060018201611c8e57611c8e611c25565b5060010190565b808201808211156104e2576104e2611c25565b601f821115610782576000816000526020600020601f850160051c81016020861015611cd15750805b601f850160051c820191505b8181101561119957828155600101611cdd565b815167ffffffffffffffff811115611d0a57611d0a6119fc565b611d1e81611d188454611bd5565b84611ca8565b602080601f831160018114611d535760008415611d3b5750858301515b600019600386901b1c1916600185901b178555611199565b600085815260208120601f198616915b82811015611d8257888601518255948401946001909101908401611d63565b5085821015611da05787850151600019600388901b60f8161c191681555b5050505050600190811b01905550565b608081526000611dc360808301876118c7565b60208301959095525060408101929092526001600160a01b0316606090910152919050565b60008351611dfa8184602088016118a3565b835190830190611e0e8183602088016118a3565b01949350505050565b6001600160a01b0385811682528416602082015260408101839052608060608201819052600090611e4a908301846118c7565b9695505050505050565b600060208284031215611e6657600080fd5b81516109d581611870565b634e487b7160e01b600052603160045260246000fdfea26469706673582212209eeca4f50541818364834bded9884630abb9f4d1230f8e5fdc276fffa4ae5ac564736f6c63430008190033","linkReferences":{}},"methodIdentifiers":{"approve(address,uint256)":"095ea7b3","balanceOf(address)":"70a08231","buyTicket(uint256)":"67dd74ca","createEvent(string,uint256,uint256)":"9e9580f6","eventExists(uint256)":"a3c28dfc","events(uint256)":"0b791430","getApproved(uint256)":"081812fc","getEventDetails(uint256)":"ec38d5a0","getTicketsAvailable(uint256)":"6df0baaf","getTotalEvents()":"61606940","isApprovedForAll(address,address)":"e985e9c5","name()":"06fdde03","owner()":"8da5cb5b","ownerOf(uint256)":"6352211e","renounceOwnership()":"715018a6","safeTransferFrom(address,address,uint256)":"42842e0e","safeTransferFrom(address,address,uint256,bytes)":"b88d4fde","setApprovalForAll(address,bool)":"a22cb465","supportsInterface(bytes4)":"01ffc9a7","symbol()":"95d89b41","tokenByIndex(uint256)":"4f6ccce7","tokenOfOwnerByIndex(address,uint256)":"2f745c59","tokenURI(uint256)":"c87b56dd","totalSupply()":"18160ddd","transferFrom(address,address,uint256)":"23b872dd","transferOwnership(address)":"f2fde38b"},"id":40}